{
  "contractName": "EstateAgency",
  "abi": [
    {
      "inputs": [
        {
          "internalType": "address",
          "name": "admin1",
          "type": "address"
        },
        {
          "internalType": "address",
          "name": "admin2",
          "type": "address"
        },
        {
          "internalType": "address",
          "name": "owner1",
          "type": "address"
        },
        {
          "internalType": "address",
          "name": "owner2",
          "type": "address"
        }
      ],
      "payable": false,
      "stateMutability": "nonpayable",
      "type": "constructor"
    },
    {
      "anonymous": false,
      "inputs": [
        {
          "indexed": true,
          "internalType": "address",
          "name": "receiver",
          "type": "address"
        },
        {
          "indexed": false,
          "internalType": "uint256",
          "name": "amount",
          "type": "uint256"
        }
      ],
      "name": "FundsWithdrawn",
      "type": "event"
    },
    {
      "anonymous": false,
      "inputs": [
        {
          "indexed": true,
          "internalType": "address",
          "name": "propertyAddress",
          "type": "address"
        },
        {
          "indexed": true,
          "internalType": "address",
          "name": "owner",
          "type": "address"
        },
        {
          "indexed": false,
          "internalType": "uint256",
          "name": "totalArea",
          "type": "uint256"
        },
        {
          "indexed": false,
          "internalType": "uint256",
          "name": "usefulArea",
          "type": "uint256"
        }
      ],
      "name": "PropertyRegistered",
      "type": "event"
    },
    {
      "anonymous": false,
      "inputs": [
        {
          "indexed": true,
          "internalType": "address",
          "name": "propertyAddress",
          "type": "address"
        },
        {
          "indexed": true,
          "internalType": "address",
          "name": "renter",
          "type": "address"
        }
      ],
      "name": "RentCancelled",
      "type": "event"
    },
    {
      "anonymous": false,
      "inputs": [
        {
          "indexed": true,
          "internalType": "address",
          "name": "propertyAddress",
          "type": "address"
        },
        {
          "indexed": true,
          "internalType": "address",
          "name": "renter",
          "type": "address"
        },
        {
          "indexed": false,
          "internalType": "uint256",
          "name": "rentAmount",
          "type": "uint256"
        },
        {
          "indexed": false,
          "internalType": "uint256",
          "name": "rentDuration",
          "type": "uint256"
        }
      ],
      "name": "RentConfirmed",
      "type": "event"
    },
    {
      "anonymous": false,
      "inputs": [
        {
          "indexed": true,
          "internalType": "address",
          "name": "propertyAddress",
          "type": "address"
        },
        {
          "indexed": false,
          "internalType": "uint256",
          "name": "rentAmount",
          "type": "uint256"
        },
        {
          "indexed": false,
          "internalType": "uint256",
          "name": "rentDuration",
          "type": "uint256"
        }
      ],
      "name": "RentOffered",
      "type": "event"
    },
    {
      "anonymous": false,
      "inputs": [
        {
          "indexed": true,
          "internalType": "address",
          "name": "user",
          "type": "address"
        },
        {
          "indexed": false,
          "internalType": "bool",
          "name": "isAdmin",
          "type": "bool"
        }
      ],
      "name": "RoleChanged",
      "type": "event"
    },
    {
      "constant": true,
      "inputs": [
        {
          "internalType": "address",
          "name": "",
          "type": "address"
        }
      ],
      "name": "administrators",
      "outputs": [
        {
          "internalType": "bool",
          "name": "",
          "type": "bool"
        }
      ],
      "payable": false,
      "stateMutability": "view",
      "type": "function"
    },
    {
      "constant": true,
      "inputs": [
        {
          "internalType": "address",
          "name": "",
          "type": "address"
        }
      ],
      "name": "balances",
      "outputs": [
        {
          "internalType": "uint256",
          "name": "",
          "type": "uint256"
        }
      ],
      "payable": false,
      "stateMutability": "view",
      "type": "function"
    },
    {
      "constant": true,
      "inputs": [
        {
          "internalType": "address",
          "name": "",
          "type": "address"
        }
      ],
      "name": "properties",
      "outputs": [
        {
          "internalType": "address",
          "name": "owner",
          "type": "address"
        },
        {
          "internalType": "uint256",
          "name": "totalArea",
          "type": "uint256"
        },
        {
          "internalType": "uint256",
          "name": "usefulArea",
          "type": "uint256"
        },
        {
          "internalType": "uint256",
          "name": "rentAmount",
          "type": "uint256"
        },
        {
          "internalType": "uint256",
          "name": "rentDuration",
          "type": "uint256"
        },
        {
          "internalType": "bool",
          "name": "rented",
          "type": "bool"
        }
      ],
      "payable": false,
      "stateMutability": "view",
      "type": "function"
    },
    {
      "constant": false,
      "inputs": [
        {
          "internalType": "address",
          "name": "propertyAddress",
          "type": "address"
        },
        {
          "internalType": "uint256",
          "name": "totalArea",
          "type": "uint256"
        },
        {
          "internalType": "uint256",
          "name": "usefulArea",
          "type": "uint256"
        }
      ],
      "name": "registerProperty",
      "outputs": [],
      "payable": false,
      "stateMutability": "nonpayable",
      "type": "function"
    },
    {
      "constant": false,
      "inputs": [
        {
          "internalType": "address",
          "name": "propertyAddress",
          "type": "address"
        },
        {
          "internalType": "uint256",
          "name": "rentAmount",
          "type": "uint256"
        },
        {
          "internalType": "uint256",
          "name": "rentDuration",
          "type": "uint256"
        }
      ],
      "name": "offerRent",
      "outputs": [],
      "payable": false,
      "stateMutability": "nonpayable",
      "type": "function"
    },
    {
      "constant": false,
      "inputs": [
        {
          "internalType": "address",
          "name": "propertyAddress",
          "type": "address"
        }
      ],
      "name": "confirmRent",
      "outputs": [],
      "payable": true,
      "stateMutability": "payable",
      "type": "function"
    },
    {
      "constant": false,
      "inputs": [
        {
          "internalType": "address",
          "name": "propertyAddress",
          "type": "address"
        }
      ],
      "name": "cancelRentOffer",
      "outputs": [],
      "payable": false,
      "stateMutability": "nonpayable",
      "type": "function"
    },
    {
      "constant": false,
      "inputs": [
        {
          "internalType": "uint256",
          "name": "amount",
          "type": "uint256"
        }
      ],
      "name": "withdrawFunds",
      "outputs": [],
      "payable": false,
      "stateMutability": "nonpayable",
      "type": "function"
    },
    {
      "constant": false,
      "inputs": [
        {
          "internalType": "address",
          "name": "user",
          "type": "address"
        },
        {
          "internalType": "bool",
          "name": "isAdmin",
          "type": "bool"
        }
      ],
      "name": "changeUserRole",
      "outputs": [],
      "payable": false,
      "stateMutability": "nonpayable",
      "type": "function"
    }
  ],
  "bytecode": "0x608060405234801561001057600080fd5b5060405161175b38038061175b8339818101604052608081101561003357600080fd5b810190808051906020019092919080519060200190929190805190602001909291908051906020019092919050505060016000808673ffffffffffffffffffffffffffffffffffffffff1673ffffffffffffffffffffffffffffffffffffffff16815260200190815260200160002060006101000a81548160ff02191690831515021790555060016000808573ffffffffffffffffffffffffffffffffffffffff1673ffffffffffffffffffffffffffffffffffffffff16815260200190815260200160002060006101000a81548160ff02191690831515021790555060008060008473ffffffffffffffffffffffffffffffffffffffff1673ffffffffffffffffffffffffffffffffffffffff16815260200190815260200160002060006101000a81548160ff02191690831515021790555060008060008373ffffffffffffffffffffffffffffffffffffffff1673ffffffffffffffffffffffffffffffffffffffff16815260200190815260200160002060006101000a81548160ff0219169083151502179055506064600260008673ffffffffffffffffffffffffffffffffffffffff1673ffffffffffffffffffffffffffffffffffffffff168152602001908152602001600020819055506064600260008573ffffffffffffffffffffffffffffffffffffffff1673ffffffffffffffffffffffffffffffffffffffff168152602001908152602001600020819055506064600260008473ffffffffffffffffffffffffffffffffffffffff1673ffffffffffffffffffffffffffffffffffffffff168152602001908152602001600020819055506064600260008373ffffffffffffffffffffffffffffffffffffffff1673ffffffffffffffffffffffffffffffffffffffff1681526020019081526020016000208190555050505050611476806102e56000396000f3fe6080604052600436106100865760003560e01c80636c36a105116100595780636c36a1051461024857806376be158514610299578063c110ae0914610302578063d6e7301d14610346578063f9441580146103ab57610086565b8063155dd5ee1461008b57806325ec77d7146100c657806327e235e31461017e5780634202ca2c146101e3575b600080fd5b34801561009757600080fd5b506100c4600480360360208110156100ae57600080fd5b8101908080359060200190929190505050610408565b005b3480156100d257600080fd5b50610115600480360360208110156100e957600080fd5b81019080803573ffffffffffffffffffffffffffffffffffffffff1690602001909291905050506105a8565b604051808773ffffffffffffffffffffffffffffffffffffffff1673ffffffffffffffffffffffffffffffffffffffff16815260200186815260200185815260200184815260200183815260200182151515158152602001965050505050505060405180910390f35b34801561018a57600080fd5b506101cd600480360360208110156101a157600080fd5b81019080803573ffffffffffffffffffffffffffffffffffffffff169060200190929190505050610611565b6040518082815260200191505060405180910390f35b3480156101ef57600080fd5b506102466004803603606081101561020657600080fd5b81019080803573ffffffffffffffffffffffffffffffffffffffff1690602001909291908035906020019092919080359060200190929190505050610629565b005b34801561025457600080fd5b506102976004803603602081101561026b57600080fd5b81019080803573ffffffffffffffffffffffffffffffffffffffff169060200190929190505050610959565b005b3480156102a557600080fd5b506102e8600480360360208110156102bc57600080fd5b81019080803573ffffffffffffffffffffffffffffffffffffffff169060200190929190505050610c4b565b604051808215151515815260200191505060405180910390f35b6103446004803603602081101561031857600080fd5b81019080803573ffffffffffffffffffffffffffffffffffffffff169060200190929190505050610c6b565b005b34801561035257600080fd5b506103a96004803603606081101561036957600080fd5b81019080803573ffffffffffffffffffffffffffffffffffffffff1690602001909291908035906020019092919080359060200190929190505050610f76565b005b3480156103b757600080fd5b50610406600480360360408110156103ce57600080fd5b81019080803573ffffffffffffffffffffffffffffffffffffffff169060200190929190803515159060200190929190505050611281565b005b80600260003373ffffffffffffffffffffffffffffffffffffffff1673ffffffffffffffffffffffffffffffffffffffff1681526020019081526020016000205410156104bd576040517f08c379a00000000000000000000000000000000000000000000000000000000081526004018080602001828103825260148152602001807f496e73756666696369656e742062616c616e636500000000000000000000000081525060200191505060405180910390fd5b80600260003373ffffffffffffffffffffffffffffffffffffffff1673ffffffffffffffffffffffffffffffffffffffff1681526020019081526020016000206000828254039250508190555060003390508073ffffffffffffffffffffffffffffffffffffffff166108fc839081150290604051600060405180830381858888f19350505050158015610555573d6000803e3d6000fd5b503373ffffffffffffffffffffffffffffffffffffffff167feaff4b37086828766ad3268786972c0cd24259d4c87a80f9d3963a3c3d999b0d836040518082815260200191505060405180910390a25050565b60016020528060005260406000206000915090508060000160009054906101000a900473ffffffffffffffffffffffffffffffffffffffff16908060010154908060020154908060030154908060040154908060050160009054906101000a900460ff16905086565b60026020528060005260406000206000915090505481565b6000803373ffffffffffffffffffffffffffffffffffffffff1673ffffffffffffffffffffffffffffffffffffffff16815260200190815260200160002060009054906101000a900460ff166106ca576040517f08c379a000000000000000000000000000000000000000000000000000000000815260040180806020018281038252602b8152602001806113f5602b913960400191505060405180910390fd5b600073ffffffffffffffffffffffffffffffffffffffff16600160008573ffffffffffffffffffffffffffffffffffffffff1673ffffffffffffffffffffffffffffffffffffffff16815260200190815260200160002060000160009054906101000a900473ffffffffffffffffffffffffffffffffffffffff1673ffffffffffffffffffffffffffffffffffffffff16146107ce576040517f08c379a000000000000000000000000000000000000000000000000000000000815260040180806020018281038252601e8152602001807f50726f706572747920697320616c72656164792072656769737465726564000081525060200191505060405180910390fd5b6040518060c001604052803373ffffffffffffffffffffffffffffffffffffffff168152602001838152602001828152602001600081526020016000815260200160001515815250600160008573ffffffffffffffffffffffffffffffffffffffff1673ffffffffffffffffffffffffffffffffffffffff16815260200190815260200160002060008201518160000160006101000a81548173ffffffffffffffffffffffffffffffffffffffff021916908373ffffffffffffffffffffffffffffffffffffffff1602179055506020820151816001015560408201518160020155606082015181600301556080820151816004015560a08201518160050160006101000a81548160ff0219169083151502179055509050503373ffffffffffffffffffffffffffffffffffffffff168373ffffffffffffffffffffffffffffffffffffffff167f8f204b0ecfffe166632e61e14d430dd7c49404debbde00c5d8356ed196ce5e5e8484604051808381526020018281526020019250505060405180910390a3505050565b803373ffffffffffffffffffffffffffffffffffffffff16600160008373ffffffffffffffffffffffffffffffffffffffff1673ffffffffffffffffffffffffffffffffffffffff16815260200190815260200160002060000160009054906101000a900473ffffffffffffffffffffffffffffffffffffffff1673ffffffffffffffffffffffffffffffffffffffff1614610a40576040517f08c379a00000000000000000000000000000000000000000000000000000000081526004018080602001828103825260268152602001806113cf6026913960400191505060405180910390fd5b600160008373ffffffffffffffffffffffffffffffffffffffff1673ffffffffffffffffffffffffffffffffffffffff16815260200190815260200160002060050160009054906101000a900460ff16610b02576040517f08c379a00000000000000000000000000000000000000000000000000000000081526004018080602001828103825260168152602001807f50726f7065727479206973206e6f742072656e7465640000000000000000000081525060200191505060405180910390fd5b6000600160008473ffffffffffffffffffffffffffffffffffffffff1673ffffffffffffffffffffffffffffffffffffffff168152602001908152602001600020600301819055506000600160008473ffffffffffffffffffffffffffffffffffffffff1673ffffffffffffffffffffffffffffffffffffffff168152602001908152602001600020600401819055506000600160008473ffffffffffffffffffffffffffffffffffffffff1673ffffffffffffffffffffffffffffffffffffffff16815260200190815260200160002060050160006101000a81548160ff0219169083151502179055503373ffffffffffffffffffffffffffffffffffffffff168273ffffffffffffffffffffffffffffffffffffffff167fa5c5d25028c154bafde38f2e1b63a731d3fd9b16e8be227d4e1a1a0891a78bda60405160405180910390a35050565b60006020528060005260406000206000915054906101000a900460ff1681565b600073ffffffffffffffffffffffffffffffffffffffff16600160008373ffffffffffffffffffffffffffffffffffffffff1673ffffffffffffffffffffffffffffffffffffffff16815260200190815260200160002060000160009054906101000a900473ffffffffffffffffffffffffffffffffffffffff1673ffffffffffffffffffffffffffffffffffffffff161415610d70576040517f08c379a000000000000000000000000000000000000000000000000000000000815260040180806020018281038252601a8152602001807f50726f7065727479206973206e6f74207265676973746572656400000000000081525060200191505060405180910390fd5b600160008273ffffffffffffffffffffffffffffffffffffffff1673ffffffffffffffffffffffffffffffffffffffff16815260200190815260200160002060050160009054906101000a900460ff16610e15576040517f08c379a00000000000000000000000000000000000000000000000000000000081526004018080602001828103825260228152602001806114206022913960400191505060405180910390fd5b3460026000600160008573ffffffffffffffffffffffffffffffffffffffff1673ffffffffffffffffffffffffffffffffffffffff16815260200190815260200160002060000160009054906101000a900473ffffffffffffffffffffffffffffffffffffffff1673ffffffffffffffffffffffffffffffffffffffff1673ffffffffffffffffffffffffffffffffffffffff168152602001908152602001600020600082825401925050819055503373ffffffffffffffffffffffffffffffffffffffff168173ffffffffffffffffffffffffffffffffffffffff167fc578616c82bd76d0d4e2c6e4d21c1e5511dfcac2a470e08822370f72605ca04034600160008673ffffffffffffffffffffffffffffffffffffffff1673ffffffffffffffffffffffffffffffffffffffff16815260200190815260200160002060040154604051808381526020018281526020019250505060405180910390a350565b600073ffffffffffffffffffffffffffffffffffffffff16600160008573ffffffffffffffffffffffffffffffffffffffff1673ffffffffffffffffffffffffffffffffffffffff16815260200190815260200160002060000160009054906101000a900473ffffffffffffffffffffffffffffffffffffffff1673ffffffffffffffffffffffffffffffffffffffff16141561107b576040517f08c379a000000000000000000000000000000000000000000000000000000000815260040180806020018281038252601a8152602001807f50726f7065727479206973206e6f74207265676973746572656400000000000081525060200191505060405180910390fd5b600160008473ffffffffffffffffffffffffffffffffffffffff1673ffffffffffffffffffffffffffffffffffffffff16815260200190815260200160002060050160009054906101000a900460ff161561113e576040517f08c379a000000000000000000000000000000000000000000000000000000000815260040180806020018281038252601a8152602001807f50726f706572747920697320616c72656164792072656e74656400000000000081525060200191505060405180910390fd5b81600160008573ffffffffffffffffffffffffffffffffffffffff1673ffffffffffffffffffffffffffffffffffffffff1681526020019081526020016000206003018190555080600160008573ffffffffffffffffffffffffffffffffffffffff1673ffffffffffffffffffffffffffffffffffffffff1681526020019081526020016000206004018190555060018060008573ffffffffffffffffffffffffffffffffffffffff1673ffffffffffffffffffffffffffffffffffffffff16815260200190815260200160002060050160006101000a81548160ff0219169083151502179055508273ffffffffffffffffffffffffffffffffffffffff167f1fd907342b91f785f4372ccb9a0dc9215f6d72324756f36d52cb5e93348255eb8383604051808381526020018281526020019250505060405180910390a2505050565b6000803373ffffffffffffffffffffffffffffffffffffffff1673ffffffffffffffffffffffffffffffffffffffff16815260200190815260200160002060009054906101000a900460ff16611322576040517f08c379a000000000000000000000000000000000000000000000000000000000815260040180806020018281038252602b8152602001806113f5602b913960400191505060405180910390fd5b806000808473ffffffffffffffffffffffffffffffffffffffff1673ffffffffffffffffffffffffffffffffffffffff16815260200190815260200160002060006101000a81548160ff0219169083151502179055508173ffffffffffffffffffffffffffffffffffffffff167f590f69937de0f94d7654f9f184089382f76863cad698392e7ec986c8371064da82604051808215151515815260200191505060405180910390a2505056fe4f6e6c7920746865206f776e65722063616e20706572666f726d207468697320616374696f6e4f6e6c792061646d696e6973747261746f72732063616e20706572666f726d207468697320616374696f6e50726f7065727479206973206e6f7420617661696c61626c6520666f722072656e74a265627a7a72315820b762277badb72330420d8f7c5815fae99d589d0ee929d3f7ae8145ac8aa977bf64736f6c63430005100032",
  "source": "// SPDX-License-Identifier: MIT\r\npragma solidity >=0.4.22 <0.9.0;\r\n\r\ncontract EstateAgency {\r\n\r\n\tstruct Property {\r\n\t\taddress owner;\r\n\t\tuint totalArea;\r\n\t\tuint usefulArea;\r\n\t\tuint rentAmount;\r\n\t\tuint rentDuration;\r\n\t\tbool rented;\r\n\t}\r\n\r\n\tmapping(address => bool) public administrators;\r\n\tmapping(address => Property) public properties;\r\n\tmapping(address => uint) public balances;\r\n\r\n\tevent PropertyRegistered(address indexed propertyAddress, address indexed owner, uint totalArea, uint usefulArea);\r\n\tevent RentOffered(address indexed propertyAddress, uint rentAmount, uint rentDuration);\r\n\tevent RentConfirmed(address indexed propertyAddress, address indexed renter, uint rentAmount, uint rentDuration);\r\n\tevent RentCancelled(address indexed propertyAddress, address indexed renter);\r\n\tevent FundsWithdrawn(address indexed receiver, uint amount);\r\n\tevent RoleChanged(address indexed user, bool isAdmin);\r\n\r\n\tconstructor(address admin1, address admin2, address owner1, address owner2) public {\r\n\t\tadministrators[admin1] = true;\r\n\t\tadministrators[admin2] = true;\r\n\t\tadministrators[owner1] = false;\r\n\t\tadministrators[owner2] = false;\r\n\t\tbalances[admin1] = 100;\r\n\t\tbalances[admin2] = 100;\r\n\t\tbalances[owner1] = 100;\r\n\t\tbalances[owner2] = 100;\r\n\t}\r\n\r\n\tmodifier onlyAdmin() {\r\n\t\trequire(administrators[msg.sender], \"Only administrators can perform this action\");\r\n\t\t_;\r\n\t}\r\n\r\n\tmodifier onlyOwner(address propertyAddress) {\r\n\t\trequire(properties[propertyAddress].owner == msg.sender, \"Only the owner can perform this action\");\r\n\t\t_;\r\n\t}\r\n\r\n\tfunction registerProperty(address propertyAddress, uint totalArea, uint usefulArea) public onlyAdmin {\r\n\t\trequire(properties[propertyAddress].owner == address(0), \"Property is already registered\");\r\n\t\tproperties[propertyAddress] = Property(msg.sender, totalArea, usefulArea, 0, 0, false);\r\n\t\temit PropertyRegistered(propertyAddress, msg.sender, totalArea, usefulArea);\r\n\t}\r\n\r\n\tfunction offerRent(address propertyAddress, uint rentAmount, uint rentDuration) public {\r\n\t\trequire(properties[propertyAddress].owner != address(0), \"Property is not registered\");\r\n\t\trequire(!properties[propertyAddress].rented, \"Property is already rented\");\r\n\t\tproperties[propertyAddress].rentAmount = rentAmount;\r\n\t\tproperties[propertyAddress].rentDuration = rentDuration;\r\n\t\tproperties[propertyAddress].rented = true;\r\n\t\temit RentOffered(propertyAddress, rentAmount, rentDuration);\r\n\t}\r\n\r\n\tfunction confirmRent(address propertyAddress) public payable {\r\n\t\trequire(properties[propertyAddress].owner != address(0), \"Property is not registered\");\r\n\t\trequire(properties[propertyAddress].rented, \"Property is not available for rent\");\r\n\t\tbalances[properties[propertyAddress].owner] += msg.value;\r\n\t\temit RentConfirmed(propertyAddress, msg.sender, msg.value, properties[propertyAddress].rentDuration);\r\n\t}\r\n\r\n\tfunction cancelRentOffer(address propertyAddress) public onlyOwner(propertyAddress) {\r\n\t\trequire(properties[propertyAddress].rented, \"Property is not rented\");\r\n\t\tproperties[propertyAddress].rentAmount = 0;\r\n\t\tproperties[propertyAddress].rentDuration = 0;\r\n\t\tproperties[propertyAddress].rented = false;\r\n\t\temit RentCancelled(propertyAddress, msg.sender);\r\n\t}\r\n\r\n\tfunction withdrawFunds(uint amount) public {\r\n\t\trequire(balances[msg.sender] >= amount, \"Insufficient balance\");\r\n\t\tbalances[msg.sender] -= amount;\r\n\t\taddress payable receiver = address(uint160(msg.sender));\r\n\t\treceiver.transfer(amount);\r\n\t\temit FundsWithdrawn(msg.sender, amount);\r\n\t}\r\n\r\n\tfunction changeUserRole(address user, bool isAdmin) public onlyAdmin {\r\n\t\tadministrators[user] = isAdmin;\r\n\t\temit RoleChanged(user, isAdmin);\r\n\t}\r\n}\r\n",
  "sourcePath": "C:\\Users\\egoru\\WebstormProjects\\ethereum-estate\\contracts\\EstateAgency.sol",
  "compiler": {
    "name": "solc",
    "version": "0.5.16+commit.9c3226ce.Emscripten.clang"
  },
  "schemaVersion": "3.4.16",
  "updatedAt": "2024-04-03T16:52:05.352Z",
  "networkType": "ethereum",
  "devdoc": {
    "methods": {}
  },
  "userdoc": {
    "methods": {}
  }
}